:020000040800F2
:1000000000280020F91400083113000839130008F3
:1000100041130008491300085113000800000000B4
:10002000000000000000000000000000591300085C
:100030006513000800000000711300087D1300081C
:100040004115000841150008411500084115000838
:100050004115000841150008411500084115000828
:100060004115000841150008411500084115000818
:100070004115000841150008411500084115000808
:1000800041150008411500084115000841150008F8
:1000900041150008411500084115000841150008E8
:1000A00041150008411500084115000841150008D8
:1000B00089130008411500080000000041150008E0
:1000C0004115000800000000000000004115000874
:1000D0000000000041150008411500080000000064
:1000E00041150008411500084115000800000000F6
:1000F0000000000000000000000000000000000000
:0C01000000000000000000005FF808F1A3
:10010C0010B5054C237833B9044B13B10448AFF345
:10011C0000800123237010BD680000200000000047
:10012C00782B000808B5034B1BB103490348AFF308
:10013C00008008BD000000006C000020782B000837
:10014C0080B483B000AF7860094A7B6852F82330E2
:10015C00012B06D1064A7B68002142F823100123AB
:10016C0000E0002318460C37BD4680BC704700BF2A
:10017C008400002080B582B000AF00237B6012E0C9
:10018C00464A7B6852F8232045497B6841F8232076
:10019C00444A7B6852F8232040497B6841F823206D
:1001AC007B6801337B607B68022BE9DD4FF4806157
:1001BC003D4801F0ADFC03461A463A4B1A604FF429
:1001CC000061394801F0A4FC03461A46354B5A60CD
:1001DC004FF48051344801F09BFC03461A46314BD6
:1001EC009A6000233B6050E02C4A3B6852F8232075
:1001FC002C493B6851F823309A4243D1284A3B683A
:10020C0052F8232025493B6851F823309A4239D1C2
:10021C00234A3B6852F8232024493B6851F8233089
:10022C009A4217D01E4A3B6852F823201F493B685C
:10023C0041F823201D4A3B6852F82330002B21D172
:10024C001B4B4FF4FA721A601A4A3B68012142F8B0
:10025C00231017E0164B1B68013B154A1360144B17
:10026C001B68002B0ED1124B4FF4FA721A600F4A16
:10027C003B6852F82330002B04D10E4A3B68012115
:10028C0042F823103B6801333B603B68022BABDD2B
:10029C0000BF00BF0837BD4680BD00BF0C0000206A
:1002AC00180000200000002000080140240000205D
:1002BC00300000208400002080B500AF7B4B1B6811
:1002CC00013B042B00F2B18101A252F823F000BFD4
:1002DC00F10200081303000801040008ED040008F3
:1002EC00A1050008714B02221A6001F057F8704BFF
:1002FC001B68184600F042FF012000F053FF01205C
:10030C0000F064FF9AE101F075F86A4B1B68012B51
:10031C0013D1052000F046FF674B1B68184600F010
:10032C0051FD654B1B680133634A1360624B1B68BC
:10033C00032B02DD604B00221A60604B1B68012B03
:10034C0024D1642000F042FF5D4B1B685D4A1268AB
:10035C001146184600F0C0FD594B1B68013B584A2A
:10036C001360584B1B68013B564A1360554B1B6876
:10037C00002B03D1544B1B68524A1360504B1B6823
:10038C00002B03D1514B1B684D4A1360504B1B681B
:10039C00012B11D1454B03221A60494B1B684D4A66
:1003AC0012681146184600F097FD4B4B1B68184617
:1003BC0000F0E4FE00F0F2FF0020FFF7C1FE034660
:1003CC00012B0AD1394B16221A60012000F0D6FEFF
:1003DC00012000F0E7FE00F0E1FF0220FFF7B0FE85
:1003EC000346012B40F02381304B0C221A6000F0A5
:1003FC00D5FF1CE101F012F82E4B1B68012B13D119
:10040C00052000F0CFFE2C4B1B68184600F0DAFCE0
:10041C00294B1B680133284A1360274B1B68032B9D
:10042C0002DD254B00221A60244B1B68012B24D1C2
:10043C00642000F0CBFE224B1B68264A1268114642
:10044C00184600F049FD1E4B1B68013B1C4A13600B
:10045C00204B1B68013B1F4A13601E4B1B68002B73
:10046C0003D11E4B1B681B4A1360154B1B68002BDA
:10047C0003D1164B1B68124A1360154B1B68012BDA
:10048C0040F0D780094B04221A600E4B1B680C4AB3
:10049C0012681146184600F01FFD054B1B681846E4
:1004AC0000F06CFE00F07AFFC3E000BF34000020C7
:1004BC0044000020F800002000010020FC00002077
:1004CC00380000203C000020500000204C00002090
:1004DC00F4000020400000204800002054000020C0
:1004EC0000F0AEFF564B1B68012B13D1052000F01A
:1004FC0059FE544B1B68184600F064FC514B1B68AA
:10050C000133504A13604F4B1B68032B02DD4D4BDC
:10051C0000221A604C4B1B68012B24D1642000F084
:10052C0055FE4A4B1B684A4A12681146184600F0A1
:10053C00D3FC474B1B68013B454A1360434B1B687C
:10054C00013B424A1360414B1B68002B03D1414BCA
:10055C001B683E4A13603E4B1B68002B03D13E4B7D
:10056C001B683B4A13603D4B1B68012B63D13C4B12
:10057C0005221A603B4B1B68354A12681146184617
:10058C0000F0AAFC384B1B68184600F0F7FD00F091
:10059C0005FF50E000F066FF294B1B68012B13D1BF
:1005AC00052000F0FFFD274B1B68184600F00AFCE5
:1005BC00244B1B680133234A1360224B1B68032B0B
:1005CC0002DD204B00221A601F4B1B68012B24D12B
:1005DC00642000F0FBFD1E4B1B68224A126811467A
:1005EC00184600F079FC1A4B1B68013B184A136043
:1005FC001C4B1B68013B1B4A13601A4B1B68002BDE
:10060C0003D11A4B1B68174A1360114B1B68002B44
:10061C0003D1114B1B680E4A1360104B1B68012B46
:10062C000BD10F4B01221A6007E000BF06E000BFA0
:10063C0004E000BF02E000BF00E000BF00BF80BDCF
:10064C00F800002000010020FC0000203C000020ED
:10065C0038000020500000204C000020F400002046
:10066C0034000020400000204800002054000020EE
:10067C0080B500AF2D4B1B680C3B032B49D801A256
:10068C0052F823F0A1060008BD060008D9060008A0
:10069C00F506000800F0AEFE0220FFF751FD034600
:1006AC00012B2FD1214B0D221A6000F077FE29E08F
:1006BC0000F0B4FE0220FFF743FD0346012B23D1CB
:1006CC001A4B0E221A6000F069FE1DE000F0B8FE15
:1006DC000220FFF735FD0346012B17D1134B0F22D8
:1006EC001A6000F05BFE11E000F0BCFE0220FFF788
:1006FC0027FD0346012B0BD10C4B0C221A6000F08A
:10070C004DFE05E000BF04E000BF02E000BF00E0CA
:10071C0000BF0020FFF714FD0346012B04D1034B4F
:10072C0001221A6000F03AFE00BF80BD34000020A8
:10073C0080B500AF7E4B1B68182B00F08180182B06
:10074C0000F38B81162B03D0172B00F00D8184E165
:10075C00784B1B680221184600F0BEFB764B1B68D9
:10076C00012B13D1192000F01DFD744B1B6818468A
:10077C0000F028FB714B1B680133704A13606F4B00
:10078C001B68032B02DD6D4B00221A606C4B1B683F
:10079C00012B04D1322000F0F1FC00F075FE012099
:1007AC00FFF7CEFC0346012B04D1624B1B680133CF
:1007BC00604A13600220FFF7C3FC0346012B32D1C1
:1007CC005C4B1B685F4A13605A4B1B685B005E4AAC
:1007DC0082FB03125210DB17D31A5C4A1360594B7D
:1007EC001A685A4B1B68D31A594A1360514B1B6831
:1007FC00584A1360554B1B68574A1360544B1B687F
:10080C00564A1360554B1B68642202FB03F3544A8F
:10081C001360514B1B68642202FB03F3514A1360B3
:10082C00434B01221A600020FFF78AFC0346012B80
:10083C0040F015813E4B18221A6000F0AFFD0EE11E
:10084C003C4B1B680321184600F046FB3A4B1B68D7
:10085C00012B13D1192000F0A5FC384B1B6818464E
:10086C0000F0B0FA354B1B680133344A1360334B3C
:10087C001B68032B02DD314B00221A60304B1B68C6
:10088C00012B04D1322000F079FC00F00DFE012088
:10089C00FFF756FC0346012B04D1264B1B68013392
:1008AC00244A13600220FFF74BFC0346012B32D184
:1008BC00204B1A6813469B001344DA0F13445B1049
:1008CC001A46204B1A601B4B1B68204A13601D4BA9
:1008DC001A681E4B1B68D31A1D4A1360194B1B68F0
:1008EC001C4A1360134B1B681B4A1360184B1B6884
:1008FC001A4A1360194B1B68642202FB03F3184A53
:10090C001360154B1B68642202FB03F3154A13603A
:10091C00074B01221A600020FFF712FC0346012B43
:10092C0040F09F80024B17221A6000F037FD98E0D0
:10093C003400002058000020F800002000010020A6
:10094C00F40000204C00002067666666540000200E
:10095C005000002038000020400000203C00002007
:10096C004400002048000020404B1B68042118461E
:10097C0000F0B2FA3E4B1B68012B13D1192000F08A
:10098C0011FC3C4B1B68184600F01CFA394B1B68D9
:10099C000133384A1360374B1B68032B02DD354B90
:1009AC0000221A60344B1B68012B04D1322000F05A
:1009BC00E5FB00F089FD0120FFF7C2FB0346012B8C
:1009CC0004D12A4B1B680133284A13600220FFF71D
:1009DC00B7FB0346012B31D1244B1B685B00274A24
:1009EC0082FB0312DB17D31A254A13601F4B1B68BB
:1009FC00244A1360224B1A68224B1B681344224A68
:100A0C001360214B1B68214A13601D4B1B68204A45
:100A1C001360164B1B681F4A13601E4B1B68642225
:100A2C0002FB03F31C4A1360194B1B68642202FB84
:100A3C0003F31A4A13601A4B01221A600020FFF7C5
:100A4C007FFB0346012B0ED1154B01221A60074B7D
:100A5C0001221A6000F0A2FC05E000BF04E000BF18
:100A6C0002E000BF00E000BF00BF80BD58000020C6
:100A7C00F800002000010020F400002056555555C8
:100A8C0054000020500000204C00002038000020B2
:100A9C00400000203C0000204400002048000020C2
:100AAC003400002080B582B000AF78607B68002BEA
:100ABC0023D100220121C24801F041F80022022179
:100ACC00BF4801F03CF800220421BD4801F037F882
:100ADC0000220821BA4801F032F800221021B8484F
:100AEC0001F02DF800222021B54801F028F8012250
:100AFC004021B34801F023F85DE17B68012B23D141
:100B0C0001220121AE4801F01AF800220221AC4862
:100B1C0001F015F800220421A94801F010F8012277
:100B2C000821A74801F00BF801221021A44801F07C
:100B3C0006F801222021A24801F001F801224021EF
:100B4C009F4800F0FCFF36E17B68022B23D100228A
:100B5C0001219B4800F0F3FF00220221984800F08D
:100B6C00EEFF01220421964800F0E9FF0022082143
:100B7C00934800F0E4FF00221021914800F0DFFFC1
:100B8C00012220218E4800F0DAFF002240218C48FF
:100B9C0000F0D5FF0FE17B68032B23D1002201214C
:100BAC00874800F0CCFF00220221854800F0C7FFE7
:100BBC0000220421824800F0C2FF00220821804854
:100BCC0000F0BDFF012210217D4800F0B8FF01228A
:100BDC0020217B4800F0B3FF00224021784800F030
:100BEC00AEFFE8E07B68042B23D10122012174487D
:100BFC0000F0A5FF00220221714800F0A0FF0022A6
:100C0C0004216F4800F09BFF012208216C4800F082
:100C1C0096FF012210216A4800F091FF002220214A
:100C2C00674800F08CFF00224021654800F087FFE8
:100C3C00C1E07B68052B23D100220121604800F024
:100C4C007EFF012202215E4800F079FF0022042180
:100C5C005B4800F074FF00220821594800F06FFF38
:100C6C0001221021564800F06AFF0022202154482E
:100C7C0000F065FF00224021514800F060FF9AE02F
:100C8C007B68062B23D1002201214D4800F057FF31
:100C9C00012202214A4800F052FF00220421484858
:100CAC0000F04DFF00220821454800F048FF0022CB
:100CBC001021434800F043FF00222021404800F05F
:100CCC003EFF002240213E4800F039FF73E07B6874
:100CDC00072B23D100220121394800F030FF0022DC
:100CEC000221374800F02BFF00220421344800F089
:100CFC0026FF01220821324800F021FF0122102199
:100D0C002F4800F01CFF012220212D4800F017FF76
:100D1C00012240212A4800F012FF4CE07B68082B8E
:100D2C0023D100220121264800F009FF00220221D4
:100D3C00234800F004FF00220421214800F0FFFEAC
:100D4C00002208211E4800F0FAFE002210211C4847
:100D5C0000F0F5FE00222021194800F0F0FE0022E0
:100D6C004021174800F0EBFE25E07B68092B22D1CF
:100D7C0000220121124800F0E2FE0022022110485C
:100D8C0000F0DDFE002204210D4800F0D8FE002208
:100D9C0008210B4800F0D3FE01221021084800F076
:100DAC00CEFE00222021064800F0C9FE0022402180
:100DBC00034800F0C4FE00BF0837BD4680BD00BF2D
:100DCC00000C014080B582B000AF78607B68032BCB
:100DDC007AD801A252F823F0F50D00082D0E000868
:100DEC00650E00089D0E000800224021384800F0D6
:100DFC00A6FE01228021364800F0A1FE01224FF40C
:100E0C008071334800F09BFE01224FF40071304892
:100E1C0000F095FE2F4B1B681846FFF743FE53E07E
:100E2C00012240212A4800F08AFE00228021284815
:100E3C0000F085FE01224FF48071254800F07FFE02
:100E4C0001224FF40071224800F079FE214B5B68BF
:100E5C001846FFF727FE37E0012240211C4800F01E
:100E6C006EFE012280211A4800F069FE00224FF428
:100E7C008071174800F063FE01224FF40071144892
:100E8C0000F05DFE134B9B681846FFF70BFE1BE052
:100E9C00012240210E4800F052FE012280210C4814
:100EAC0000F04DFE01224FF48071094800F047FE1E
:100EBC0000224FF40071064800F041FE054BDB6840
:100ECC001846FFF7EFFD00BF00BF0837BD4680BDD9
:100EDC00000801409000002080B483B000AF78601F
:100EEC0039607B68184A82FB03129210DB17D31A05
:100EFC00164A13607968144B83FB01239A10CB17A5
:100F0C00D21A13469B0013445B00CA1A0F4B5A604B
:100F1C003B680D4A82FB03129210DB17D31A0B4A63
:100F2C0093603968084B83FB01239A10CB17D21AB4
:100F3C0013469B0013445B00CA1A044BDA6000BFD3
:100F4C000C37BD4680BC7047676666669000002013
:100F5C0080B500AF00F0F0FA00F012F800F098F84D
:100F6C0000F04AF8054801F049FAFFF7A5F9FFF738
:100F7C00DFFBFFF77DFB00BFF7E700BFA000002001
:100F8C0080B590B000AF07F1180328220021184655
:100F9C0001F0C0FD3B1D00221A605A609A60DA60B5
:100FAC001A610223BB610123BB621023FB62002385
:100FBC007B6307F11803184600F0F2FD0346002B83
:100FCC0001D000F0D5F80F237B600023BB60002319
:100FDC00FB6000233B6100237B613B1D0021184615
:100FEC0001F060F80346002B01D000F0C1F800BFFF
:100FFC004037BD4680BD000080B586B000AF07F11C
:10100C00080300221A605A609A60DA603B4600229C
:10101C001A605A601D4B4FF080421A601B4B41F610
:10102C003F725A60194B00229A60184B0922DA6001
:10103C00164B00221A61154B00229A61134801F0DD
:10104C008DF90346002B01D000F092F84FF4805339
:10105C00BB6007F1080319460C4801F00BFB034673
:10106C00002B01D000F084F800233B6000237B6050
:10107C003B461946054801F0E3FC0346002B01D022
:10108C0000F076F800BF1837BD4680BDA0000020E8
:10109C0080B586B000AF07F1080300221A605A60D1
:1010AC009A60DA60294B9B69284A43F004039361E8
:1010BC00264B9B6903F004037B607B68234B9B6985
:1010CC00224A43F008039361204B9B6903F0080309
:1010DC003B603B68002242F2E0311D4800F02FFDDE
:1010EC00002241F6FF611B4800F029FD42F2E0337B
:1010FC00BB600123FB6000233B6102237B6107F192
:10110C0008031946124800F087FB41F6FF63BB60E9
:10111C000123FB6000233B6102237B6107F1080381
:10112C0019460C4800F078FB4FF4E053BB600023E9
:10113C00FB6000233B6107F108031946044800F0EB
:10114C006BFB00BF1837BD4680BD00BF00100240CE
:10115C0000080140000C014080B582B000AF7860FF
:10116C0000F048F8FFF706F800BF0837BD4680BD11
:10117C0080B400AF72B600BF00BFFDE780B483B08F
:10118C0000AF7860054A7B681360054B00221A603B
:10119C0000BF0C37BD4680BC704700BFE800002084
:1011AC00F400002080B483B000AF7860054A7B68FF
:1011BC001360054B00221A6000BF0C37BD4680BC83
:1011CC00704700BFEC000020F800002080B483B012
:1011DC0000AF7860054A7B681360054B00221A60EB
:1011EC0000BF0C37BD4680BC704700BFF00000202C
:1011FC00FC00002080B400AF194B1B68002B0BDDEA
:10120C00174B1B68013B164A1360154B1B68002BD0
:10121C0002DC144B01221A60134B1B68002B0BDDF4
:10122C00114B1B68013B104A13600F4B1B68002BC2
:10123C0002DC0E4B01221A600D4B1B68002B0BDDE0
:10124C000B4B1B68013B0A4A1360094B1B68002BB4
:10125C0002DC084B01221A6000BFBD4680BC7047FF
:10126C00E8000020F4000020EC000020F800002032
:10127C00F0000020FC00002080B485B000AF154BBE
:10128C009B69144A43F001039361124B9B6903F071
:10129C000103BB60BB680F4BDB690E4A43F0805304
:1012AC00D3610C4BDB6903F080537B607B680A4B8A
:1012BC005B68FB60FB6823F0E063FB60FB6843F05A
:1012CC008063FB60044AFB68536000BF1437BD4663
:1012DC0080BC7047001002400000014080B584B013
:1012EC0000AF78607B681B68B3F1804F13D10C4B57
:1012FC00DB690B4A43F00103D361094BDB6903F053
:10130C000103FB60FB68002200211C2000F04DFA59
:10131C001C2000F066FA00BF1037BD4680BD00BF30
:10132C000010024080B400AF00BFFDE780B400AFF6
:10133C0000BFFDE780B400AF00BFFDE780B400AF95
:10134C0000BFFDE780B400AF00BFFDE780B400AF85
:10135C0000BFBD4680BC704780B400AF00BFBD4627
:10136C0080BC704780B400AF00BFBD4680BC7047E6
:10137C0080B500AF00F026F900BF80BD80B500AF8E
:10138C00024801F087F800BF80BD00BFA00000201C
:10139C0080B400AF00BFBD4680BC704780B500AFC5
:1013AC0000228021114800F0CAFB00224FF40051AA
:1013BC000F4800F0C4FB00224FF400710B4800F002
:1013CC00BEFB00224FF48061084800F0B8FB0022FD
:1013DC004FF40061054800F0B2FB00224FF480513D
:1013EC00024800F0ACFB00BF80BD00BF000C014008
:1013FC000008014080B500AF01224FF400510548B0
:10140C0000F09DFB01224FF48051034800F097FB44
:10141C0000BF80BD00080140000C014080B500AF4A
:10142C0001224FF40071054800F089FB01224FF4B2
:10143C008051024800F083FB00BF80BD000C0140CE
:10144C0080B500AF01228021054800F078FB012215
:10145C004FF40061024800F072FB00BF80BD00BF7A
:10146C00000C014080B500AF01228021054800F03E
:10147C0066FB01224FF48061024800F060FB00BF64
:10148C0080BD00BF000C014080B500AF8021054835
:10149C0000F06DFB4FF48051024800F068FB00BF78
:1014AC0080BD00BF000C014080B500AF4FF400714F
:1014BC00044800F05CFB4FF48061024800F057FBDD
:1014CC0000BF80BD000C014080B500AF4FF400514F
:1014DC00044800F04CFB4FF40061034800F047FB5C
:1014EC0000BF80BD00080140000C0140FFF750FF19
:1014FC000B480C490C4A002302E0D458C450043366
:10150C00C4188C42F9D3094A094C002301E013603A
:10151C000432A242FBD301F005FBFFF719FD704723
:10152C000000002068000020BC2B00086800002090
:10153C0008010020FEE7000080B500AF084B1B68D7
:10154C00074A43F010031360032000F023F90F2027
:10155C0000F008F8FFF790FE0023184680BD00BF8E
:10156C000020024080B582B000AF7860124B1A6840
:10157C00124B1B7819464FF47A73B3FBF1F3B2FBA1
:10158C00F3F3184600F03BF90346002B01D001237E
:10159C000EE07B680F2B0AD8002279684FF0FF30E1
:1015AC0000F003F9064A7B681360002300E0012376
:1015BC0018460837BD4680BD5C0000206400002042
:1015CC006000002080B400AF054B1B781A46054B19
:1015DC001B681344034A136000BFBD4680BC7047B0
:1015EC00640000200401002080B400AF024B1B6893
:1015FC001846BD4680BC70470401002080B485B0FD
:10160C0000AF78607B6803F00703FB600C4BDB6872
:10161C00BB60BA684FF6FF031340BB60FB681A024D
:10162C00BB68134343F0BF6343F40033BB60044A0D
:10163C00BB68D36000BF1437BD4680BC704700BF89
:10164C0000ED00E080B400AF044BDB681B0A03F034
:10165C0007031846BD4680BC704700BF00ED00E094
:10166C0080B483B000AF0346FB7197F90730002BB1
:10167C000BDBFB7903F01F02064997F907305B0976
:10168C00012000FA02F241F8232000BF0C37BD46BE
:10169C0080BC704700E100E080B483B000AF03462B
:1016AC003960FB7197F90730002B0ADB3B68DAB223
:1016BC000C4997F907301201D2B20B4483F800237E
:1016CC000AE03B68DAB20849FB7903F00F03043BEC
:1016DC001201D2B20B441A7600BF0C37BD4680BC47
:1016EC00704700BF00E100E000ED00E080B489B07D
:1016FC0000AFF860B9607A60FB6803F00703FB6128
:10170C00FB69C3F10703042B28BF0423BB61FB69EE
:10171C000433062B02D9FB69033B00E000237B61F9
:10172C004FF0FF32BB6902FA03F3DA43BB681A408D
:10173C007B699A404FF0FF317B6901FA03F3D9437F
:10174C007B680B40134318462437BD4680BC70475A
:10175C0080B582B000AF78607B68013BB3F1807FCD
:10176C0001D301230FE00A4A7B68013B53600F2130
:10177C004FF0FF30FFF790FF054B00229A60044BAF
:10178C0007221A60002318460837BD4680BD00BFEB
:10179C0010E000E080B582B000AF78607868FFF7A9
:1017AC002DFF00BF0837BD4680BD80B586B000AFA9
:1017BC000346B9607A60FB7300237B61FFF742FF3D
:1017CC0078617A68B9687869FFF790FF024697F9F3
:1017DC000F3011461846FFF75FFF00BF1837BD46A4
:1017EC0080BD80B582B000AF0346FB7197F907301E
:1017FC001846FFF735FF00BF0837BD4680BD80B5E2
:10180C0082B000AF78607868FFF7A2FF03461846F5
:10181C000837BD4680BD000080B48BB000AF786047
:10182C00396000237B6200233B6261E101227B6A09
:10183C0002FA03F3FB613B681B68FA691340BB6156
:10184C00BA69FB699A4240F050813B685B68974AE1
:10185C0093425ED0954A934275D8954A934258D09C
:10186C00934A93426FD8934A934252D0914A9342EF
:10187C0069D8914A93424CD08F4A934263D88F4A8D
:10188C00934246D08D4A93425DD8122B2AD8122B04
:10189C0059D801A252F823F01F190008F9180008B2
:1018AC000B1900084D1900085319000853190008AA
:1018BC00531900085319000853190008531900084C
:1018CC00531900085319000853190008531900083C
:1018DC00531900085319000853190008011900087E
:1018EC0015190008764A934213D02CE03B68DB684C
:1018FC003B6229E03B68DB6804333B6224E03B68D5
:10190C00DB6808333B621FE03B68DB680C333B62EF
:10191C001AE03B689B68002B02D104233B6213E066
:10192C003B689B68012B05D108233B627B68FA69F5
:10193C001A6109E008233B627B68FA695A6103E08B
:10194C0000233B6200E000BFBB69FF2B01D87B6822
:10195C0001E07B6804337B61BB69FF2B02D87B6A97
:10196C009B0002E07B6A083B9B003B617B691A6829
:10197C000F213B6901FA03F3DB431A40396A3B69D7
:10198C0001FA03F31A437B691A603B685B6803F046
:10199C008053002B00F0A9804A4B9B69494A43F0C5
:1019AC0001039361474B9B6903F00103BB60BB6868
:1019BC00454A7B6A9B08023352F82330FB607B6AF2
:1019CC0003F003039B000F2202FA03F3DB43FA68D4
:1019DC001340FB607B683D4A93420DD07B683C4AC8
:1019EC00934207D07B683B4A934201D1022304E027
:1019FC00032302E0012300E000237A6A02F00302D1
:101A0C0092009340FA681343FB602F497B6A9B0852
:101A1C000233FA6841F823203B685B6803F48013B7
:101A2C00002B06D02C4B9A682B49BB6913438B6057
:101A3C0006E0294B9A68BB69DB43274913408B604E
:101A4C003B685B6803F40013002B06D0224BDA686A
:101A5C002149BB691343CB6006E01F4BDA68BB69B5
:101A6C00DB431D491340CB603B685B6803F40033D8
:101A7C00002B06D0184B5A681749BB6913434B60AF
:101A8C0006E0154B5A68BB69DB43134913404B60A6
:101A9C003B685B6803F48033002B1FD00E4B1A6835
:101AAC000D49BB6913430B601FE000BF00003210EF
:101ABC000000311000002210000021100000121054
:101ACC00000011100010024000000140000801400D
:101ADC00000C014000100140000401400B4B1A683F
:101AEC00BB69DB43094913400B607B6A01337B62A2
:101AFC003B681A687B6A22FA03F3002B7FF496AEDC
:101B0C0000BF00BF2C37BD4680BC704700040140AD
:101B1C0080B485B000AF78600B467B807B689A6898
:101B2C007B881340002B02D00123FB7301E00023C0
:101B3C00FB73FB7B18461437BD4680BC704780B4E2
:101B4C0083B000AF78600B467B8013467B707B784C
:101B5C00002B03D07A887B681A6103E07B881A0417
:101B6C007B681A6100BF0C37BD4680BC704780B4DF
:101B7C0085B000AF78600B467B807B68DB68FB60D0
:101B8C007A88FB6813401A04FB68D9437B880B40A6
:101B9C001A437B681A6100BF1437BD4680BC70477E
:101BAC0080B586B000AF78607B68002B01D1012333
:101BBC0072E27B681B6803F00103002B00F0878046
:101BCC00924B5B6803F00C03042B0CD08F4B5B68BF
:101BDC0003F00C03082B12D18C4B5B6803F480339D
:101BEC00B3F5803F0BD1894B1B6803F40033002BFA
:101BFC006CD07B685B68002B68D101234CE27B685E
:101C0C005B68B3F5803F06D1804B1B687F4A43F479
:101C1C00803313602EE07B685B68002B0CD17B4B10
:101C2C001B687A4A23F480331360784B1B68774A1D
:101C3C0023F4802313601DE07B685B68B3F5A02F51
:101C4C000CD1724B1B68714A43F4802313606F4BA9
:101C5C001B686E4A43F4803313600BE06B4B1B68BC
:101C6C006A4A23F480331360684B1B68674A23F479
:101C7C00802313607B685B68002B13D0FFF7B4FCE8
:101C8C00386108E0FFF7B0FC02463B69D31A642BBD
:101C9C0001D9032300E25D4B1B6803F40033002BD6
:101CAC00F0D014E0FFF7A0FC386108E0FFF79CFCD3
:101CBC0002463B69D31A642B01D90323ECE1534B45
:101CCC001B6803F40033002BF0D100E000BF7B68ED
:101CDC001B6803F00203002B63D04C4B5B6803F0D2
:101CEC000C03002B0BD0494B5B6803F00C03082B47
:101CFC001CD1464B5B6803F48033002B16D1434B4D
:101D0C001B6803F00203002B05D07B681B69012BB9
:101D1C0001D00123C0E13D4B1B6823F0F8027B6826
:101D2C005B69DB00394913430B603AE07B681B6944
:101D3C00002B20D0364B01221A60FFF755FC38617E
:101D4C0008E0FFF751FC02463B69D31A022B01D97C
:101D5C000323A1E12D4B1B6803F00203002BF0D0F1
:101D6C002A4B1B6823F0F8027B685B69DB00274970
:101D7C0013430B6015E0264B00221A60FFF734FC6E
:101D8C00386108E0FFF730FC02463B69D31A022B9E
:101D9C0001D9032380E11D4B1B6803F00203002BC8
:101DAC00F0D17B681B6803F00803002B3AD07B68EA
:101DBC009B69002B19D0174B01221A60FFF714FCFA
:101DCC00386108E0FFF710FC02463B69D31A022B7E
:101DDC0001D9032360E10D4B5B6A03F00203002B76
:101DEC00F0D0012000F09CFA1CE00A4B00221A6093
:101DFC00FFF7FAFB38610FE0FFF7F6FB02463B6991
:101E0C00D31A022B08D9032346E100BF001002406D
:101E1C000000424280044242924B5B6A03F0020390
:101E2C00002BE9D17B681B6803F00403002B00F046
:101E3C00A6800023FB758B4BDB6903F08053002BD2
:101E4C000DD1884BDB69874A43F08053D361854BB6
:101E5C00DB6903F08053BB60BB680123FB75824BCD
:101E6C001B6803F48073002B18D17F4B1B687E4AD0
:101E7C0043F480731360FFF7B7FB386108E0FFF79A
:101E8C00B3FB02463B69D31A642B01D9032303E14C
:101E9C00754B1B6803F48073002BF0D07B68DB68F8
:101EAC00012B06D16F4B1B6A6E4A43F00103136280
:101EBC002DE07B68DB68002B0CD16A4B1B6A694AEE
:101ECC0023F001031362674B1B6A664A23F0040379
:101EDC0013621CE07B68DB68052B0CD1614B1B6A21
:101EEC00604A43F0040313625E4B1B6A5D4A43F085
:101EFC00010313620BE05B4B1B6A5A4A23F001038C
:101F0C001362584B1B6A574A23F0040313627B6815
:101F1C00DB68002B15D0FFF767FB38610AE0FFF791
:101F2C0063FB02463B69D31A41F28832934201D9D2
:101F3C000323B1E04B4B1B6A03F00203002BEED0E2
:101F4C0014E0FFF751FB38610AE0FFF74DFB024646
:101F5C003B69D31A41F28832934201D903239BE0A7
:101F6C00404B1B6A03F00203002BEED1FB7D012BCF
:101F7C0005D13C4BDB693B4A23F08053D3617B6832
:101F8C00DB69002B00F08780364B5B6803F00C0399
:101F9C00082B61D07B68DB69022B46D1334B0022C6
:101FAC001A60FFF721FB386108E0FFF71DFB0246C2
:101FBC003B69D31A022B01D903236DE0294B1B6813
:101FCC0003F00073002BF0D17B681B6AB3F5803FE4
:101FDC0008D1244B5B6823F400327B689B68214951
:101FEC0013434B601F4B5B6823F474127B68196AB4
:101FFC007B685B6A0B431B4913434B601B4B0122F1
:10200C001A60FFF7F1FA386108E0FFF7EDFA0246C3
:10201C003B69D31A022B01D903233DE0114B1B68FA
:10202C0003F00073002BF0D035E0104B00221A6047
:10203C00FFF7DAFA386108E0FFF7D6FA02463B6997
:10204C00D31A022B01D9032326E0064B1B6803F09D
:10205C000073002BF0D11EE07B68DB69012B07D1EC
:10206C00012319E000100240007000406000424261
:10207C000B4B5B68FB60FB6803F480327B681B6A6C
:10208C009A4206D1FB6803F470127B685B6A9A4231
:10209C0001D0012300E0002318461837BD4680BD4F
:1020AC000010024080B584B000AF786039607B6866
:1020BC00002B01D10123D0E06A4B1B6803F007030E
:1020CC003A689A4210D9674B1B6823F0070265499E
:1020DC003B6813430B60634B1B6803F007033A68C0
:1020EC009A4201D00123B8E07B681B6803F002031D
:1020FC00002B20D07B681B6803F00403002B05D059
:10210C00594B5B68584A43F4E06353607B681B6827
:10211C0003F00803002B05D0534B5B68524A43F481
:10212C0060535360504B5B6823F0F0027B689B68F4
:10213C004D4913434B607B681B6803F00103002B74
:10214C0040D07B685B68012B07D1474B1B6803F4BD
:10215C000033002B15D101237FE07B685B68022BD9
:10216C0007D1414B1B6803F00073002B09D10123ED
:10217C0073E03D4B1B6803F00203002B01D10123DC
:10218C006BE0394B5B6823F003027B685B68364974
:10219C0013434B60FFF728FAF8600AE0FFF724FAC4
:1021AC000246FB68D31A41F28832934201D90323C9
:1021BC0053E02D4B5B6803F00C027B685B689B0063
:1021CC009A42EBD1274B1B6803F007033A689A42FB
:1021DC0010D2244B1B6823F0070222493B6813439F
:1021EC000B60204B1B6803F007033A689A4201D03E
:1021FC00012332E07B681B6803F00403002B08D03A
:10220C00194B5B6823F4E0627B68DB681649134367
:10221C004B607B681B6803F00803002B09D0124B42
:10222C005B6823F460527B681B69DB000E49134327
:10223C004B6000F021F802460B4B5B681B0903F066
:10224C000F030A49CB5C22FA03F3094A1360094BCA
:10225C001B681846FFF786F9002318461037BD4651
:10226C0080BD00BF0020024000100240902B0008EF
:10227C005C0000206000002080B487B000AF002319
:10228C00FB600023BB6000237B6100237B60002389
:10229C003B611E4B5B68FB60FB6803F00C03042B7B
:1022AC0002D0082B03D027E0194B3B6127E0FB68D9
:1022BC009B0C03F00F03174AD35C7B60FB6803F4A1
:1022CC008033002B10D0114B5B685B0C03F00103C7
:1022DC00114AD35CBB607B680D4A03FB02F2BB68FE
:1022EC00B2FBF3F37B6104E07B680C4A02FB03F363
:1022FC007B617B693B6102E0054B3B6100BF3B6945
:10230C0018461C37BD4680BC704700BF0010024009
:10231C0000127A00A02B0008B02B000800093D0029
:10232C0080B485B000AF78600A4B1B680A4AA2FBE8
:10233C0003235B0A7A6802FB03F3FB6000BFFB68B4
:10234C005A1EFA60002BF9D100BF00BF1437BD46EE
:10235C0080BC70475C000020D34D621080B582B009
:10236C0000AF78607B68002B01D1012341E07B68D2
:10237C0093F83D30DBB2002B06D17B68002283F84A
:10238C003C207868FEF7AAFF7B68022283F83D2088
:10239C007B681A687B6804331946104600F056FABD
:1023AC007B68012283F846207B68012283F83E205B
:1023BC007B68012283F83F207B68012283F8402050
:1023CC007B68012283F841207B68012283F842203C
:1023DC007B68012283F843207B68012283F8442028
:1023EC007B68012283F845207B68012283F83D201D
:1023FC00002318460837BD4680BD000080B485B068
:10240C0000AF78607B6893F83D30DBB2012B01D0D4
:10241C00012335E07B68022283F83D207B681B6832
:10242C00DA687B681B6842F00102DA607B681B6823
:10243C00164A934209D07B681B68B3F1804F04D0D5
:10244C007B681B68124A934211D17B681B689B689E
:10245C0003F00703FB60FB68062B10D07B681B683E
:10246C001A687B681B6842F001021A6007E07B68FF
:10247C001B681A687B681B6842F001021A60002313
:10248C0018461437BD4680BC704700BF002C014075
:10249C000004004080B584B000AF78607B681B6896
:1024AC00DB68FB607B681B681B69BB60BB6803F067
:1024BC000203002B20D0FB6803F00203002B1BD07F
:1024CC007B681B686FF002021A617B6801221A7725
:1024DC007B681B689B6903F00303002B03D07868AF
:1024EC0000F098F905E0786800F08BF9786800F056
:1024FC009AF97B6800221A77BB6803F00403002B5F
:10250C0020D0FB6803F00403002B1BD07B681B68F6
:10251C006FF004021A617B6802221A777B681B68D1
:10252C009B6903F44073002B03D0786800F072F9B8
:10253C0005E0786800F065F9786800F074F97B685C
:10254C0000221A77BB6803F00803002B20D0FB682D
:10255C0003F00803002B1BD07B681B686FF008028C
:10256C001A617B6804221A777B681B68DB6903F0AD
:10257C000303002B03D0786800F04CF905E0786871
:10258C0000F03FF9786800F04EF97B6800221A776A
:10259C00BB6803F01003002B20D0FB6803F0100382
:1025AC00002B1BD07B681B686FF010021A617B68D4
:1025BC0008221A777B681B68DB6903F44073002BD5
:1025CC0003D0786800F026F905E0786800F019F976
:1025DC00786800F028F97B6800221A77BB6803F052
:1025EC000103002B0CD0FB6803F00103002B07D078
:1025FC007B681B686FF001021A617868FEF7ACFD0E
:10260C00BB6803F08003002B0CD0FB6803F0800345
:10261C00002B07D07B681B686FF080021A6178680A
:10262C0000F06FFABB6803F04003002B0CD0FB6882
:10263C0003F04003002B07D07B681B686FF040024F
:10264C001A61786800F0F8F8BB6803F02003002BDF
:10265C000CD0FB6803F02003002B07D07B681B68B1
:10266C006FF020021A61786800F042FA00BF103750
:10267C00BD4680BD80B584B000AF78603960002362
:10268C00FB737B6893F83C30012B01D10223B4E03F
:10269C007B68012283F83C207B68022283F83D2072
:1026AC007B681B689B68BB60BB6823F07703BB60CF
:1026BC00BB6823F47F43BB607B681B68BA689A6075
:1026CC003B681B68B3F5005F3ED0B3F5005F00F2CA
:1026DC008780B3F5805F00F08680B3F5805F7FD88C
:1026EC00702B1AD0702B7BD8602B50D0602B77D8E6
:1026FC00502B3CD0502B73D8402B58D0402B6FD83C
:10270C00302B64D0302B6BD8202B60D0202B67D88B
:10271C00002B5CD0102B5AD062E07B6818683B68A9
:10272C0099683B685A683B68DB6800F06AF97B681B
:10273C001B689B68BB60BB6843F07703BB607B681E
:10274C001B68BA689A604FE07B6818683B689968A8
:10275C003B685A683B68DB6800F053F97B681B6880
:10276C009A687B681B6842F480429A603CE07B6804
:10277C0018683B6859683B68DB681A4600F0CAF871
:10278C007B681B685021184600F021F92CE07B680F
:10279C0018683B6859683B68DB681A4600F0E8F833
:1027AC007B681B686021184600F011F91CE07B68FF
:1027BC0018683B6859683B68DB681A4600F0AAF851
:1027CC007B681B684021184600F001F90CE07B681F
:1027DC001A683B681B681946104600F0F8F803E0CD
:1027EC000123FB7300E000BF7B68012283F83D20CE
:1027FC007B68002283F83C20FB7B18461037BD46D3
:10280C0080BD80B483B000AF786000BF0C37BD468C
:10281C0080BC704780B483B000AF786000BF0C37C9
:10282C00BD4680BC704780B483B000AF786000BFF9
:10283C000C37BD4680BC704780B483B000AF786065
:10284C0000BF0C37BD4680BC7047000080B485B01B
:10285C0000AF786039607B681B68FB607B682B4A33
:10286C00934207D07B68B3F1804F03D07B68284A32
:10287C00934208D1FB6823F07003FB603B685B68F4
:10288C00FA681343FB607B68204A934207D07B684D
:10289C00B3F1804F03D07B681D4A934208D1FB688B
:1028AC0023F44073FB603B68DB68FA681343FB60FE
:1028BC00FB6823F080023B685B691343FB607B6819
:1028CC00FA681A603B689A687B68DA623B681A6837
:1028DC007B689A627B680D4A934203D13B681A6904
:1028EC007B681A637B6801225A617B681B6903F061
:1028FC000103002B05D07B681B6923F001027B6868
:10290C001A6100BF1437BD4680BC7047002C0140D3
:10291C000004004080B487B000AFF860B9607A6002
:10292C00FB681B6A7B61FB681B6A23F00102FB6876
:10293C001A62FB689B693B613B6923F0F0033B61C6
:10294C007B681B013A6913433B617B6923F00A03E3
:10295C007B617A69BB6813437B61FB683A699A6156
:10296C00FB687A691A6200BF1C37BD4680BC704791
:10297C0080B487B000AFF860B9607A60FB681B6AFE
:10298C007B61FB681B6A23F01002FB681A62FB6810
:10299C009B693B613B6923F470433B617B681B0380
:1029AC003A6913433B617B6923F0A0037B61BB68ED
:1029BC001B017A6913437B61FB683A699A61FB6876
:1029CC007A691A6200BF1C37BD4680BC704780B460
:1029DC0085B000AF786039607B689B68FB60FB68F2
:1029EC0023F07003FB603A68FB68134343F0070362
:1029FC00FB607B68FA689A6000BF1437BD4680BCE8
:102A0C00704780B487B000AFF860B9607A603B6003
:102A1C00FB689B687B617B6923F47F437B613B682C
:102A2C001A027B681A43BB6813437A6913437B61B0
:102A3C00FB687A699A6000BF1C37BD4680BC704742
:102A4C0080B485B000AF786039607B6893F83C3017
:102A5C00012B01D1022341E07B68012283F83C2049
:102A6C007B68022283F83D207B681B685B68FB60F7
:102A7C007B681B689B68BB60FB6823F07003FB6082
:102A8C003B681B68FA681343FB607B681B68FA6839
:102A9C005A607B681B68144A934209D07B681B6898
:102AAC00B3F1804F04D07B681B68104A93420CD161
:102ABC00BB6823F08003BB603B685B68BA68134358
:102ACC00BB607B681B68BA689A607B68012283F8DC
:102ADC003D207B68002283F83C20002318461437E5
:102AEC00BD4680BC704700BF002C01400004004074
:102AFC0080B483B000AF786000BF0C37BD4680BC9B
:102B0C00704780B483B000AF786000BF0C37BD460F
:102B1C0080BC704703460244934200D1704703F8CF
:102B2C00011BF9E770B500260C4D0D4C641BA4106D
:102B3C00A64209D100F01AF800260A4D0A4C641B73
:102B4C00A410A64205D170BD55F8043B9847013638
:102B5C00EEE755F8043B98470136F2E7B42B000832
:102B6C00B42B0008B42B0008B82B0008F8B500BF34
:102B7C00F8BC08BC9E467047F8B500BFF8BC08BC52
:042B8C009E467047AA
:102B9000000000000000000001020304060708090D
:102BA00002030405060708090A0B0C0D0E0F10108E
:042BB000010200001E
:042BB40031010008E3
:042BB8000D01000803
:102BBC000100000000000000000000000100000007
:102BCC0000000000000000000100000000000000F8
:102BDC0000000000010000000000000000000000E8
:102BEC00F4010000010000000500000003000000DB
:102BFC00020000002C010000C800000005000000CD
:102C0C0003000000020000000100000000127A0026
:082C1C0010000000010000009F
:04000005080014F9E2
:00000001FF
